:020000040800F2
:10000000100C0020050100082B0B0008E509000872
:10001000290B0008CF010008D10D000800000000E6
:10002000000000000000000000000000350D000886
:10003000D101000800000000330D0008370D000852
:100040001F0100081F0100081F0100081F01000810
:100050001F0100081F0100081F0100081F01000800
:100060001F0100081F0100081F0100081F010008F0
:100070001F0100081F0100081F0100081F010008E0
:100080001F0100081F0100081F0100081F010008D0
:100090001F0100081F0100081F0100081F010008C0
:1000A0001F0100081F0100081F0100081F010008B0
:1000B0001F0100081F0100081F0100081F010008A0
:1000C0001F0100081F0100081F0100081F01000890
:1000D0001F0100081F0100081F0100081F01000880
:1000E0001F0100081F0100081F010008DFF810D0E1
:1000F00000F02CF800480047A10E0008AFF3008084
:10010000100C00200648804706480047FEE7FEE73F
:10011000FEE7FEE7FEE7FEE7FEE7FEE7FEE7FEE7B7
:10012000890D0008ED000008D2B201E000F8012BB3
:10013000491EFBD270470022F6E710B513460A4667
:1001400004461946FFF7F0FF204610BD064C074D48
:1001500006E0E06840F0010394E807009847103497
:10016000AC42F6D3FFF7C6FF280F0008480F00087F
:1001700070B58D1810F8014B14F0030201D110F87E
:10018000012B231106D110F8013B03E010F8016B9D
:1001900001F8016B521EF9D1ABB110F8012B04F03C
:1001A0000C048A1A0C2C03D0A2EB84129B1C08E0CE
:1001B00010F8014BA2EB0422F8E712F8014B01F80A
:1001C000014B5B1EF9D5A942D4D3002070BDFEE7D8
:1001D0007047000070B5044600F0F2F80546601C58
:1001E00002D004480078044400F0EAF8401BA04222
:1001F000FAD370BD000800202DE9F84FDFF890A178
:1002000000220AF1040B144601274FF00F090BF1ED
:10021000040E00BF0B6807FA04F52B40AB4274D103
:10022000DFF870C14E68A6EB0C0866452BD00DDCDC
:10023000032E34D005DC36B3012E19D0022E2FD177
:100240001BE0112E16D0122E2AD119E0B8F5881F06
:1002500019D006DCB8F5803F15D0B8F5801F1FD146
:1002600011E0B8F5001F0ED0B8F5041F18D10AE050
:10027000CA6815E0CA68121D12E0CA6808320FE0A9
:10028000CA680C320CE08A682AB1012A4FF00802D1
:1002900003D0456104E0042202E0056100E0002291
:1002A000FF2B01D8064601E000F104064FEA840561
:1002B00001D9A5F12005D6F800C009FA05F82CEA05
:1002C000080C02FA05F54CEA050CC6F800C04D68AA
:1002D000ED0057D5304DAE6946F00106AE61AD690F
:1002E00024F0030605F0010500952C4D06EB050CE6
:1002F000DCF80850A6074FEA167809FA08F6B54365
:10030000274EB04202D1002610E03BE0254EB0421D
:1003100001D101260AE0244EB04201D1022605E0B7
:10032000224EB04201D1032600E0042606FA08F668
:100330002E43CCF808604D68DAF80060ED035546AE
:1003400001D51E4300E09E432E604D68DBF800603F
:10035000AD035D4601D51E4300E09E432E604D680F
:10036000DEF80060ED02754601D51E4300E09E43B5
:100370002E604D68AD020E4D2E6801D51E4300E083
:100380009E432E60641C102CFFF444AFBDE8F88F30
:100390000004014000001110001002400000014064
:1003A00000080140000C0140001001400014014011
:1003B0000C0401400AB1016170470904FBE7000029
:1003C00001488068704700000008002002488168EA
:1003D000027811448160704700080020074810B57A
:1003E000016841F010010160032000F067F800206F
:1003F00000F006F800F024F8002010BD00200240B4
:1004000070B50D4D04464FF47A712878B1FBF0F0C9
:100410000A490968B1FBF0F000F0D0FA48B9102C95
:1004200007D200222146501E00F028F800206C6000
:1004300070BD012070BD0000000800200C080020E5
:100440000C4808B5816941F001018161816901F0C1
:1004500001010091C16941F08051C161C06900F0A2
:10046000805000900448416821F0E06141F08071C3
:10047000416008BD0010024000000140F0B40E4B86
:100480001B680C46C3F30223C3F10705042D00D9F2
:100490000425191D072901D2002300E0DB1E0126D7
:1004A00006FA05F1491E214099409E40761E1640ED
:1004B0003143F0BC00F03ABB0CED00E0064900F01F
:1004C000070208684FF6FF03184040EA0220034A7B
:1004D00010430860704700000CED00E00000FA05D2
:1004E0002DE9F047DFF8548105460E46D8F80000A4
:1004F00000F00700B0420CD2D8F8001021F007013C
:100500003143C8F80010D8F8000000F00700B042EE
:100510006FD128684A4C810712D5400703D560681F
:1005200040F4E06060602878000703D5606840F41C
:10053000605060606068A96820F0F0000843606067
:100540002878C00744D06868012816D0216802289E
:1005500016D0890700294CDA616821F003010143B4
:100560006160FFF72DFF6968074641F28830012975
:100570000ED00229814618D026E021688903E9E7D8
:100580008901E7E7FFF71CFFC11B494501D918E0C6
:1005900081466068C0F381000128F3D118E000BFF4
:1005A000FFF70EFFC11B49450BD86068C0F38100FF
:1005B0000228F5D10CE000BFFFF702FFC11B49453F
:1005C00002D90320BDE8F087606810F00C0FF3D16A
:1005D000D8F80010404601F00701B1420BD901687C
:1005E00021F0070131430160006800F00700B042CC
:1005F00001D00120E6E72878400705D56068E96862
:1006000020F4E060084360602878000706D5606841
:10061000296920F4605040EAC100606000F016F8DB
:100620006168084AC1F30311515CC840064908607B
:100630000020FFF7E5FE0020C4E700000020024094
:1006400000100240180F00080C08002012A185B00D
:100650000FC98DE80F0014A0144A00680490516877
:10066000134801F00C03042B10D0082B0ED1C1F35A
:100670008343C9031DF803000AD5516804AAC1F3D6
:100680004041515C0A4A5043B0FBF1F005B070475D
:1006900008494843FAE70000020304050607080971
:1006A0000A0B0C0D0E0F101001020000001002408A
:1006B00000127A0000093D002DE9F84F0446007849
:1006C000B94DC00748D06868C0F38100012807D041
:1006D0006868C0F38100022809D16868C00306D5A4
:1006E0002868800338D5606800286FD034E06068DF
:1006F000B0F5803F0BD010B1B0F5A02F11D0286815
:1007000020F480302860286820F4802002E02868E7
:1007100040F480302860606888B1FFF751FE0646DB
:1007200009E0286840F480202860F0E7FFF748FEE1
:10073000801B642875D828688003F7D50CE0FFF784
:100740003FFE064605E000BFFFF73AFE801B642827
:10075000F0D828688003F7D42078944E80074FF0B3
:1007600001094FF000083BD5686810F00C0F07D066
:100770006868C0F38100022809D16868C00306D404
:100780002868800714D5206901281FD110E020694E
:10079000B0B1C6F80090FFF713FE074605E000BFB2
:1007A000FFF70EFEC01B0228C4D828688007F7D5C3
:1007B0002868616920F0F80040EAC10028600FE075
:1007C000C6F80080FFF7FCFD074606E0E9E000BF41
:1007D000FFF7F6FDC01B022823D828688007F7D44E
:1007E000207800072CD57248A169D9B1C0F80090D3
:1007F000FFF7E6FD074604E0FFF7E2FDC01B022815
:100800000FD8686A8007F7D56A484FF4FA51006834
:10081000B0FBF1F0009000BF0098411E0091FAD2A9
:100820000EE080E0C0F80080FFF7CAFD074604E054
:10083000FFF7C6FDC01B022875D8686A8007F7D489
:100840002078400760D5E8690027C00008D4E8692F
:1008500040F08050E861E869012700F08050009086
:1008600055480168C90513D40168834641F4807175
:100870000160FFF7A5FD824606E000BFFFF7A0FD7F
:10088000A0EB0A0064284ED8DBF80000C005F5D5BF
:10089000E06801280AD008B1052813D0286A20F0A2
:1008A00001002862286A20F0040002E0286A40F073
:1008B00001002862E06841F2883B98B1FFF780FDB3
:1008C00082460BE0286A40F004002862EEE700BF91
:1008D000FFF776FDA0EB0A0159455AD8286A800730
:1008E000F6D50CE0FFF76CFD824605E0FFF768FDEA
:1008F000A0EB0A0159454CD8286A8007F6D41FB1ED
:10090000E86920F08050E861E06988B36968C1F364
:100910008101022945D00228C6F8608004D0FFF783
:100920004FFD044638E034E0FFF74AFD074604E097
:10093000FFF746FDC01B02282BD828688001F7D49A
:10094000206AB0F5803F05D16868A16820F40030C6
:1009500008436860D4E908010843696821F4741108
:1009600008436860C6F86090FFF72AFD044606E079
:1009700015E000BFFFF724FD001B022809D82868F6
:100980008001F7D50BE000BFFFF71AFD001B02281E
:1009900002D90320BDE8F88F28688001F4D4002034
:1009A000F8E70120F6E70000001002400000424294
:1009B000800442420C0800200070004010B5401E28
:1009C000B0F1807F01D3012010BD4FF0E0246061C1
:1009D0000F21601700F0AAF80020A0610720206115
:1009E000002010BDFEE7000010B50B4C0122402195
:1009F0002046FFF7DFFC012280212046FFF7DAFCCA
:100A0000002280212046FFF7D5FC20460022BDE8C9
:100A100010404021FFF7CEBC000C014010B5094C3E
:100A2000012240212046FFF7C5FC002280212046FC
:100A3000FFF7C0FC20460122BDE810408021FFF7EF
:100A4000B9BC0000000C014010B5064C0122402149
:100A50002046FFF7AFFC20460022BDE810404021B1
:100A6000FFF7A8BC000C01402DE9F04186B000243E
:100A70002A480094019402940394816941F0100182
:100A80008161816901F010010491816941F02001C7
:100A90008161816901F020010491816941F00801BF
:100AA0008161816901F008010491816941F00401CB
:100AB000816180691A4F00F004004FF400550490E2
:100AC000002229463846FFF775FCDFF858800122DE
:100AD0004FF44C614046FFF76DFC0095022601255E
:100AE0000396CDE9015469463846FFF785FB4FF47C
:100AF0004060CDE90005CDE9024669464046FFF772
:100B00007BFBC020CDE900050320CDE9024069460A
:100B10004046FFF771FB06B0BDE8F08100100240CF
:100B200000100140000C0140FEE770470907090E64
:100B3000002806DA00F00F0000F1E02080F8141D14
:100B4000704700F1E02080F80014704770B5002471
:100B5000002104F1B00000F0E6F80021022000F0CE
:100B6000E2F80021102000F0DEF80025012100202D
:100B700000F0D9F86D1CEDB2802DF7D3641CE4B2FF
:100B8000082CE5D370BD2DE9F047984617468246FC
:100B900000260C46DDF8209012E02146504600F079
:100BA000ABF8554608E019F80600761CB6B20121EC
:100BB00000F0B9F86D1CEDB2BD42F4D3641CE4B290
:100BC0004445EAD3BDE8F08730B585B000200090F9
:100BD0000190029003904648816941F008018161CB
:100BE0008069444D00F008004FF4406404900022F6
:100BF00021462846FFF7DEFB01210220CDE9021045
:100C0000CDE9004169462846FFF7F6FA0A20FFF7CA
:100C1000E1FA0021AE2000F086F80021022000F069
:100C200082F80021102000F07EF80021402000F022
:100C30007AF80021B02000F076F80021812000F041
:100C400072F80021FF2000F06EF80021A12000F0D2
:100C50006AF80021A62000F066F80021A82000F024
:100C600062F800213F2000F05EF80021C82000F06B
:100C70005AF80021D32000F056F80021084600F071
:100C800052F80021D52000F04EF80021802000F01D
:100C90004AF80021D82000F046F80021052000F095
:100CA00042F80021D92000F03EF80021F12000F0A8
:100CB0003AF80021DA2000F036F80021122000F086
:100CC00032F80021DB2000F02EF80021302000F067
:100CD0002AF800218D2000F026F80021142000F0D1
:100CE00022F80021AF2000F01EF805B030BD000052
:100CF00000100240000C014010B50A4604460021D5
:100D000002F1B00000F00FF8A41CC4F3031040F08F
:100D10001000002100F007F804F00F00BDE81040BB
:100D20000021AFF30080C0B209B100F092B800F02A
:100D300079B870477047FFF749BB30B58FB02821AD
:100D40006846FFF7F8F914210AA8FFF7F4F9012122
:100D50000804CDE900100024029402250491CDE995
:100D600007504FF4E01009906846FFF7A5FC0F20EC
:100D7000CDE90A056802CDE90C4002210AA80E94CB
:100D8000FFF7AEFB0FB030BD0D48016841F0010127
:100D9000016041680B4A1140416001680A4A1140F4
:100DA0000160016821F480210160416821F4FE01A5
:100DB00041604FF41F0181600449C003086070471F
:100DC000001002400000FFF8FFFFF6FE08ED00E013
:100DD000FEE7000070B5124E044600224021304666
:100DE000FFF7E8FA5FF0000504F08000802815D0D6
:100DF000002280213046FFF7DDFA6006040E012252
:100E000040213046FFF7D6FA002240213046FFF756
:100E1000D1FA6D1CEDB2082DE6D370BD0122E8E7D2
:100E2000000C014010B50446FFF7DEFD7820FFF707
:100E3000D1FFFFF709FE0020FFF7CCFFFFF704FE0C
:100E40002046FFF7C7FFFFF7FFFDBDE81040FFF7A3
:100E5000E5BD10B50446FFF7C7FD7820FFF7BAFFE0
:100E6000FFF7F2FD4020FFF7B5FFFFF7EDFD20464D
:100E7000FFF7B0FFFFF7E8FDBDE81040FFF7CEBD7C
:100E800002E008C8121F08C1002AFAD17047704753
:100E9000002001E001C1121F002AFBD170470000B1
:100EA00008B5FFF79BFAFFF748FFFFF7DDFDFFF7F7
:100EB0008BFEFFF74BFE012251031548FFF77AFA2C
:100EC000DFF850800025002408EB452604F1400798
:100ED000C4F18000FAB2C0B2082300210096FFF7E7
:100EE00052FE291908EB412000906042FAB2C0B2CC
:100EF00008230021FFF747FE641CE4B2802CE5D3F1
:100F000001D16D1CEDB2042DDDD10025DBE7000021
:100F10000010014000000020000000000000000060
:100F20000102030406070809480F0008000000201A
:100F30001008000070010008A0110008100800202F
:100F400000040000900E000802130001B00580802C
:100F500080C0011111021E0001100FC0E0E0F0F886
:100F6000FC7C3E3E1F1F0F0F070120090303F3FB0C
:100F7000FBF303030C000E100F0F1F1F3E3E7CFC03
:100F8000F8F0E0E0C03BC00AF0FCFEFF3F0F0703B3
:100F9000011812FF01C19A900A0103070F3FFFFEDB
:100FA000FCF04512F82703123F039301104041E083
:100FB00013033F1AA2F866E1942380C0CD00051404
:100FC0007F3F1F0FECA19A12019292FF9210043002
:100FD0007C7E38F1CDA1EE11B1B20FEC21D7277F85
:100FE0007E1F256D05149432C094277E7F29051538
:100FF0008426016E256C50061E3E3E3E3C01110BC0
:10100000461E9402170394013D01319D100BE0F040
:10101000F0F8F8F8FCFCFCFE0140057E7E7E7F01C6
:10102000110A21111118111E2AF00091E2256615EE
:10103000FC16FF6A21A220070303038181C14C1122
:101040000142F001310C6006C0C0C18181DD18048D
:101050003F7FFF03114D22E0F111D5154B217D118A
:101060007923FF7F4A198139825101110E11141021
:10107000053F7F7FFF87218315294139A581451FC2
:1010800035F9219441C341BD21BB159A46806005C5
:10109000177E390D31781193214931BF13C0806D0E
:1010A0003116052B7D220FB1153F0916830157011B
:1010B0001969357C72F80135850E22C0030417F0DA
:1010C000F8CC7101463FAB8112CDB803FDAF03618F
:1010D0003C19395EFF6103157A2405F1E3E3C7F596
:1010E000615601184081671C07F8F0F1E3C7878C4F
:1010F0000328071F0F8FC7E3F11B0228FF40423F61
:101100003622F1809008F8F1E1E3C78F0FC90D187E
:101110000603B1EC41C010051F1F8FC74B82F88139
:101120000A1B7F3DB5312D4B03A53F190C091B7CD4
:10113000DD060481010D59FA03094D7D2D3B0401A3
:101140002C322DF7034E1FEE035DCC051F1E0671DA
:10115000061A1F6D1DE8031D59061004FECFC701B6
:101160001EDFFA034D12062FFE0E9006198D4D015B
:10117000061D78054F7FF86504BD720649811D96EE
:101180000540047DF1E101A20120091C0A01A7012B
:1011900021D46E10C207000400A24A04000000001F
:04000005080000ED02
:00000001FF
